:100000000C9434000C943E000C943E000C943E0082
:100010000C943E000C943E000C943E000C943E0068
:100020000C943E000C943E000C943E000C943E0058
:100030000C943E000C943E000C943E000C943E0048
:100040000C943E000C943E000C943E000C943E0038
:100050000C943E000C943E000C943E000C943E0028
:100060000C943E000C943E0011241FBECFEFD4E050
:10007000DEBFCDBF0E946F000C9484000C94000082
:100080001092850010928400EFE6F0E0808182609B
:1000900080830895EFE6F0E080818D7F808308956E
:1000A0000895F894E1E8F0E080818360808388E03F
:1000B0009DE390938900809388008081886080838D
:1000C00078940895F8941092C50080E48093C40059
:1000D000E0ECF0E080818D7F808378940895F8943F
:1000E0008091810083608093810088E09DE39093FC
:1000F00089008093880080918100886080938100CE
:0C0100007894509A589AFFCFF894FFCFE3
:00000001FF
