:100000000C9434000C943E000C943E000C943E0082
:100010000C943E000C943E000C943E000C943E0068
:100020000C943E000C943E000C943E000C943E0058
:100030000C943E000C943E000C943E000C943E0048
:100040000C943E000C943E000C943E000C943E0038
:100050000C943E000C943E000C943E000C943E0028
:100060000C943E000C943E0011241FBECFEFD4E050
:10007000DEBFCDBF0E947C000C94AF000C9400004A
:100080001092850010928400EFE6F0E0808182609B
:1000900080830895EFE6F0E080818D7F808308956E
:1000A0009091C00095FFFCCF8093C6000895F8940E
:1000B000E1E8F0E080818360808388E09DE39093B5
:1000C0008900809388008081886080837894089577
:1000D000F8949093C5008093C400E2ECF0E0808136
:1000E0008F7C80838081877F8083E1ECF0E080815A
:1000F0008860808378940895F8948091810083606B
:100100008093810088E09DE390938900809388002C
:10011000809181008860809381007894F89484E0D5
:100120008093C50080E18093C4008091C2008F7CE1
:100130008093C2008091C200877F8093C20080912B
:10014000C10088608093C1007894279A2F9893E724
:100150008091C00085FFFCCF9093C600F9CFF89442
:02016000FFCFCF
:00000001FF
